:1030000055C000006EC000006CC000006AC0000027
:1030100068C0000066C0000064C0000062C000001C
:1030200060C000005EC00000A7C400005AC00000DD
:1030300058C0000056C0000054C0000052C000003C
:1030400050C000005EC000004CC000004AC000003C
:1030500048C0000046C0000044C0000042C000005C
:1030600040C000003EC000003CC000003AC000006C
:1030700038C0000036C0000034C0000032C000007C
:1030800030C000002EC000002CC000002AC000008C
:1030900028C0000026C0000024C0000022C000009C
:1030A00020C000001EC000001CC0000011241FBE74
:1030B000CFEFD5E0DEBFCDBF11E0A0E0B1E0E8E9A1
:1030C000FEE302C005900D92A83AB107D9F711E0CE
:1030D000A8EAB1E001C01D92AC3BB107E1F745D3CE
:1030E000D9C68ECFF89410926F0010928100109282
:1030F00085001092840081E085BF15BE0C9400000D
:1031000008951F920F920FB60F9211242F938F9351
:103110009F93EF93FF931092850010928400E0E05C
:10312000F0E0859194918F5F9F4F49F08091AC01C1
:103130009091AD0101969093AD018093AC01FF9108
:10314000EF919F918F912F910F900FBE0F901F9035
:10315000189584E08093E9000DC08091E8008B779A
:103160008093E80003C08EB3882351F08091E8007B
:1031700082FFF9CF8091E80085FFEFCF8091F100C9
:103180000895982F83E08093E9008091E80085FD01
:103190000DC08091E8008E778093E80003C08EB365
:1031A000882331F08091E80080FFF9CF9093F100FF
:1031B00008954F925F926F927F928F929F92AF92FB
:1031C000BF92CF92DF92EF92FF920F931F93CF9314
:1031D000DF9384E08093E9008091E80082FF50C291
:1031E000B8DF182F853481F48CEA9DE09093AD010F
:1031F0008093AC0107B600FCFDCFF999FECF81E1C9
:1032000080935700E89503C0843519F4A2DF8DE060
:103210000DC28C34E1F38035D1F3843721F484E49A
:10322000B0DF80E003C2813611F489E5FFC181344B
:10323000B1F48FDF182F8DDF90E0880F991FAA2738
:1032400097FDA095BA2F312F330F20E0442737FD8B
:103250004095542F822B932BA42BB52BB8C18037CC
:1032600011F483E5E3C1833549F4C0E0D1E08991ED
:1032700088DF21E0C730D207D1F7D9C1863521F4E4
:1032800081E37FDF80E3D2C1833731F488E879DFDF
:1032900084E977DF8EE1CAC18536B9F4E0E0F0E079
:1032A00093E085E090935700E89507B600FCFDCFCA
:1032B00080935700E89507B600FCFDCFE058FF4F1C
:1032C000A0E3E030FA0771F7A2CF823739F4E1E0EA
:1032D000F0E089E0809357008491A8C1863439F4E6
:1032E000E0E0F0E089E08093570084919FC18E3444
:1032F00039F4E3E0F0E089E080935700849196C1CF
:10330000813539F4E2E0F0E089E080935700849160
:103310008DC1823631F489E534DF80E032DF80E828
:1033200085C1823419F0873609F0E5C01092AD01ED
:103330001092AC010EDF082F0CDFF82E0ADF682E8A
:103340008554823008F071C1902F80E0CF2DD0E0FD
:10335000C82BD92B10926F00173609F04BC081E1B2
:1033600080935700E895DD24CC24C3943FC0E090BF
:10337000AE01F090AF010091B0011091B101B6E43F
:103380006B16D9F4ED2DF0E0EE29FF29E4918E2F94
:10339000F8DEDD2081F082E090E0A0E0B0E0E80E11
:1033A000F91E0A1F1B1FE092AE01F092AF010093BD
:1033B000B0011093B101DC2418C0D801C701B69543
:1033C000A7959795879550D5DCDE82E090E0A0E048
:1033D000B0E0E80EF91E0A1F1B1FE092AE01F0924A
:1033E000AF010093B0011093B1012197209709F02C
:1033F000BECF7DC08090AE019090AF01A090B00193
:10340000B090B10196E4691609F05DC083E0F40163
:1034100080935700E89507B600FCFDCF54C0F6E452
:103420006F1661F5772031F1E090AE01F090AF01B9
:103430000091B0011091B1018CDED82ECC24852DE5
:1034400090E08C299D29F7010C0140925700E895E6
:10345000112482E090E0A0E0B0E0E80EF91E0A1F1F
:103460001B1FE092AE01F092AF010093B0011093E8
:10347000B10102C06EDE582E742423C0E090AE016C
:10348000F090AF010091B0011091B1011695079530
:10349000F794E7945EDE682FC701EED48091AE0109
:1034A0009091AF01A091B001B091B1010296A11D20
:1034B000B11D8093AE019093AF01A093B001B09382
:1034C000B101219704C055247724442443942097C4
:1034D00009F0A5CF96E4691641F485E0F4018093E4
:1034E0005700E89507B600FCFDCF8DE04ADE82E08C
:1034F00080936F009CC0833471F40091AE011091F1
:10350000AF0127DE90E021E0F8010C012093570085
:10351000E89511247CCE833619F5E090AE01F09049
:10352000AF010091B0011091B10113DEF701E1602C
:1035300090E021E00C0120935700E895112482E0EF
:1035400090E0A0E0B0E0E80EF91E0A1F1B1FE09219
:10355000AE01F092AF010093B0011093B10157CECC
:103560008D3661F4E091AE01F091AF0185E080937A
:103570005700E89507B600FCFDCF49CE823551F4DF
:10358000E091AE01F091AF0105911491812FF9DD29
:10359000802F4CC0843421F5E090AE01F090AF0153
:1035A0000091B0011091B10116950795F794E79439
:1035B000D0DD682FC70160D48091AE019091AF013A
:1035C000A091B001B091B1010296A11DB11D8093EF
:1035D000AE019093AF01A093B001B093B10117CEAB
:1035E000843609F5E090AE01F090AF010091B00192
:1035F0001091B101D801C701B695A7959795879508
:1036000033D4BFDD82E090E0A0E0B0E0E80EF91E28
:103610000A1F1B1FE092AE01F092AF010093B001B0
:103620001093B10104C08B3111F08FE3AADD83E068
:103630008093E9009091E8008091E8008E77809374
:10364000E80095FF04C010C08EB38823C9F08091B4
:10365000E80080FFF9CF8091E8008E778093E80042
:1036600003C08EB3882361F08091E80080FFF9CF1A
:1036700084E08093E9008091E8008B778093E800F4
:10368000DF91CF911F910F91FF90EF90DF90CF903E
:10369000BF90AF909F908F907F906F905F904F9072
:1036A00008959091B401892F8F77813249F58091E7
:1036B000B5018032A1F0813219F5913A09F5809176
:1036C000E800877F8093E8008DE091E067E070E09C
:1036D00002D28091E8008B778093E80008959132C0
:1036E00079F48091E800877F8093E8008DE091E095
:1036F00067E070E054D28091E8008E778093E80014
:10370000089582E061EC42E0AED083E061E842E1FE
:10371000AAD084E060E842E1A6C084B7877F84BF76
:1037200088E10FB6F89480936000109260000FBE9D
:1037300020E880E090E00FB6F89420936100809339
:1037400061000FBE81E085BF92E095BFE1E6F0E049
:1037500020831082109289008AEF809388009093D2
:103760006F0083E080938100EFC04091000450918E
:103770000104109201041092000494B714BE88E171
:103780000FB6F89480936000109260000FBE292F4E
:1037900030E0F901E270F07091FD18C090FF05C0B3
:1037A000859194918F5F9F4F81F423FF0FC080918B
:1037B000090190910A014817590741F0E0E0F0E053
:1037C000859194918F5F9F4F09F08CDCA6DF7894F0
:1037D0001092AD011092AC010BC0EBDC33D38091A1
:1037E000AC019091AD01815A9F4010F010921401EC
:1037F00080911401882389F78091E0008160809393
:10380000E00070DC80E090E00895FA01923049F029
:10381000933061F09130F9F485E191E022E130E0FC
:103820001EC087E291E02EE330E019C0882329F41E
:1038300085E691E024E030E012C0813029F489E689
:1038400091E022E230E00BC0823029F48DE891E073
:1038500028E130E004C080E090E020E030E0918397
:103860008083C90108958093E9008091EB00816015
:103870008093EB001092ED006093EC004093ED001C
:103880008091EE00881F8827881F08958091B401D9
:1038900088238CF403C08EB38823B1F08091E800B4
:1038A00082FFF9CF8091E8008B778093E80008953C
:1038B0008EB3882349F08091E80080FFF9CF809192
:1038C000E8008E778093E8000895EF92FF920F93BF
:1038D0001F9345D04CD008ED10E0F80180818F7720
:1038E000808380818068808380818F7D808319BC04
:1038F0001EBA1092B20180EEE82EF12CF701808101
:103900008B7F8083F80180818160808380E060E02C
:1039100042E0A9DFE1EEF0E080818E7F8083E2EE7D
:10392000F0E0808181608083808188608083F701FE
:1039300080818E7F8083F8018081806180831F91E8
:103940000F91FF90EF900895E7EDF0E080818160A6
:1039500080838AE482BF81E08093B301B6CFE8ED33
:10396000F0E080818E7F80831092E20008951092B3
:10397000DA001092E10008951F920F920FB60F9295
:1039800011242F933F934F935F936F937F938F9364
:103990009F93AF93BF93EF93FF938091DA0080FFE3
:1039A0001AC08091D80080FF16C08091DA008E7F07
:1039B0008093DA008091D90080FF0AC019BC82E0B0
:1039C00089BD09B400FEFDCF81E08EBB3AD203C0B1
:1039D00019BC1EBA36D28091E10080FF17C08091D9
:1039E000E20080FF13C08091E2008E7F8093E200AE
:1039F0008091E20080618093E2008091D800806233
:103A00008093D80019BC85E08EBB1BD28091E10069
:103A100084FF2BC08091E20084FF27C019BC82E0A4
:103A200089BD09B400FEFDCF8091D8008F7D8093C1
:103A3000D8008091E1008F7E8093E1008091E200C8
:103A40008F7E8093E2008091E20081608093E200AB
:103A50008091B201882331F48091E30087FD02C098
:103A600081E001C084E08EBBECD18091E10083FF56
:103A700021C08091E20083FF1DC08091E100877F1B
:103A80008093E10082E08EBB1092B2018091E10050
:103A90008E7F8093E1008091E2008E7F8093E20030
:103AA0008091E20080618093E20080E060E042E08B
:103AB000DADEC7D1FF91EF91BF91AF919F918F91C6
:103AC0007F916F915F914F913F912F910F900FBE1A
:103AD0000F901F9018959C014091BA015091BB0125
:103AE0004617570718F4F90190E044C061157105B5
:103AF00011F0AB01F8CF8091E8008E778093E80059
:103B000040E050E0F0CF8EB3882309F444C0853004
:103B100009F443C08091E80083FF02C081E008956A
:103B20008091E80082FD31C08091E80080FF22C0D2
:103B30008091F3009091F200782F60E0292F30E01F
:103B4000262B372B07C081918093F10041505040C4
:103B50002F5F3F4F4115510519F02830310598F37B
:103B600090E02830310509F491E08091E8008E77EB
:103B70008093E8004115510531F6992321F605C0DF
:103B80008EB3882341F0853041F08091E80082FFB8
:103B9000F7CF80E0089582E0089583E008959C01C6
:103BA0006115710529F48091E8008B778093E80016
:103BB000F90126C08EB3882391F1853091F180916F
:103BC000E80083FF02C081E008958091E80082FF51
:103BD000F1CF06C08091F10081936150704059F09F
:103BE0002091F3008091F200322F20E090E0822BB0
:103BF000932B892B79F78091E8008B778093E800ED
:103C000061157105B9F605C08EB3882341F0853082
:103C100041F08091E80080FFF7CF80E0089582E0D6
:103C2000089583E008950F931F93DF93CF9300D0FF
:103C3000CDB7DEB7E4EBF1E08091F100819381E054
:103C4000EC3BF807C9F72DDD8091E80083FFE4C065
:103C50008091B4019091B501953009F46DC0963012
:103C600040F4913081F1913070F0933009F0D4C07C
:103C70002AC0983009F4A3C0993009F4B2C0963034
:103C800009F0CAC07CC0803809F4C6C0823809F087
:103C9000C3C08091B80187708093E9008091EB00E8
:103CA0001092E9002091E800277F2093E80090E03F
:103CB00025E0969587952A95E1F781708093F1002C
:103CC0001092F10087C0882319F0823009F0A4C057
:103CD0008F71823009F0A0C08091B601882331F540
:103CE0002091B801277009F497C02093E9008091D2
:103CF000EB0080FF1BC0933021F48091EB008062C9
:103D000013C08091EB0080618093EB0081E090E034
:103D100002C0880F991F2A95E2F78093EA0010925B
:103D2000EA008091EB0088608093EB001092E9003C
:103D30008091E800877F51C0882309F06DC0109101
:103D4000B6011F770FB7F8948091E800877F8093C2
:103D5000E8009CDD8091E80080FFFCCF8091E300CB
:103D60008078812B8093E30080688093E3001123A7
:103D700011F482E001C083E08EBB0FBF4DC08058BC
:103D8000823008F049C08091B6019091B7016091EE
:103D9000B801AE014F5F5F4F38DDBC01009709F4F9
:103DA0003BC08091E800877F8093E80089819A81F9
:103DB00092DE8091E8008B778093E8002DC08038F8
:103DC00059F58091E800877F8093E8008091B201E7
:103DD0008093F1008091E8008E778093E80056DDB3
:103DE0001BC08823C9F49091B6019230A8F4809149
:103DF000E800877F8093E8009093B20147DD8091CF
:103E0000B201882331F48091E30087FD02C081E094
:103E100001C084E08EBB75DC8091E80083FF0AC09E
:103E20008091EB0080628093EB008091E800877FB7
:103E30008093E8000F900F90CF91DF911F910F9129
:103E4000089508951F938EB3882361F01091E900BF
:103E50001092E9008091E80083FF01C0E4DE177052
:103E60001093E9001F910895F999FECF92BD81BD8D
:103E7000F89A992780B50895262FF999FECF1FBA91
:103E800092BD81BD20BD0FB6F894FA9AF99A0FBE83
:083E900001960895F894FFCF9C
:103E98004341544552494E410077770004000000E1
:103EA80000000008011201100102000008D804AD4A
:103EB800EB01000201000109023E0002010080FA44
:103EC8000904000001020201000524001001042475
:103ED80002040524060001070582030800FF0904FF
:103EE8000100020A0000000705040210000107058E
:103EF80083021000010403090422034300610074D3
:103F0800006500720069006E006100200042006FC9
:103F1800006F0074006C0064002000000018035556
:103F2800006E006B006E006F0077006E00200020AE
:083F3800002000200000000041
:0400000300003000C9
:00000001FF
